{
  "contractName": "MasterChef",
  "abi": [
    {
      "inputs": [
        {
          "internalType": "uint256",
          "name": "_pid",
          "type": "uint256"
        },
        {
          "internalType": "uint256",
          "name": "_amount",
          "type": "uint256"
        }
      ],
      "name": "deposit",
      "outputs": [],
      "stateMutability": "nonpayable",
      "type": "function"
    }
  ],
  "bytecode": "0x608060405234801561001057600080fd5b5060e78061001f6000396000f3fe6080604052348015600f57600080fd5b506004361060285760003560e01c8063e2bbb15814602d575b600080fd5b60436004803603810190603f9190605c565b6045565b005b5050565b600081359050605681609d565b92915050565b60008060408385031215606e57600080fd5b6000607a858286016049565b92505060206089858286016049565b9150509250929050565b6000819050919050565b60a4816093565b811460ae57600080fd5b5056fea264697066735822122017f5c904775d009965d5b68acae0015bbbfcf3974f431f61d2c25fc71bf36dee64736f6c63430008000033",
  "immutableReferences": {},
  "source": "pragma solidity ^0.8.0;\r\n\r\ncontract MasterChef {\r\n  function deposit(\r\n    uint256 _pid,\r\n    uint256 _amount\r\n  ) public {}\r\n  }",
  "sourcePath": "C:\\Users\\daniel.eklund.TTC\\Ethereum\\TradeUniswap\\contracts\\MasterChef.sol",
  "compiler": {
    "name": "solc",
    "version": "0.8.0+commit.c7dfd78e.Emscripten.clang"
  },
  "schemaVersion": "3.4.2",
  "updatedAt": "2021-07-27T22:16:21.863Z",
  "devdoc": {
    "kind": "dev",
    "methods": {},
    "version": 1
  },
  "userdoc": {
    "kind": "user",
    "methods": {},
    "version": 1
  }
}