{
  "contractName": "MasterChef_Referrer",
  "abi": [
    {
      "inputs": [
        {
          "internalType": "uint256",
          "name": "_pid",
          "type": "uint256"
        },
        {
          "internalType": "uint256",
          "name": "_amount",
          "type": "uint256"
        },
        {
          "internalType": "address",
          "name": "_referrer",
          "type": "address"
        }
      ],
      "name": "deposit",
      "outputs": [],
      "stateMutability": "nonpayable",
      "type": "function"
    }
  ],
  "bytecode": "0x608060405234801561001057600080fd5b5061016a806100206000396000f3fe608060405234801561001057600080fd5b506004361061002b5760003560e01c80638dbdbe6d14610030575b600080fd5b61004a6004803603810190610045919061007b565b61004c565b005b505050565b60008135905061006081610106565b92915050565b6000813590506100758161011d565b92915050565b60008060006060848603121561009057600080fd5b600061009e86828701610066565b93505060206100af86828701610066565b92505060406100c086828701610051565b9150509250925092565b60006100d5826100dc565b9050919050565b600073ffffffffffffffffffffffffffffffffffffffff82169050919050565b6000819050919050565b61010f816100ca565b811461011a57600080fd5b50565b610126816100fc565b811461013157600080fd5b5056fea26469706673582212201e178e996292692fa1eece7eb12d93c4c75aff439d90f8c7f323de864683cb7064736f6c63430008000033",
  "immutableReferences": {},
  "source": "pragma solidity ^0.8.0;\r\n\r\ncontract MasterChef_Referrer {\r\n  function deposit(\r\n    uint256 _pid,\r\n    uint256 _amount,\r\n    address _referrer\r\n  ) public {}\r\n  }",
  "sourcePath": "C:\\Users\\daniel.eklund.TTC\\Ethereum\\TradeUniswap\\contracts\\MasterChef_Referrer.sol",
  "compiler": {
    "name": "solc",
    "version": "0.8.0+commit.c7dfd78e.Emscripten.clang"
  },
  "schemaVersion": "3.4.2",
  "updatedAt": "2021-07-27T22:16:21.864Z",
  "devdoc": {
    "kind": "dev",
    "methods": {},
    "version": 1
  },
  "userdoc": {
    "kind": "user",
    "methods": {},
    "version": 1
  }
}